:080000000000000000000000F8
:080004000000000000000000F4
:080008000000000000000000F0
:08000C000000000000000000EC
:080010000000000100040000E3
:080014000007000000000000DD
:08001800000A000000000000D6
:08001C000000000000000000DC
:080020000000000200050000D1
:080024000008000000000000CC
:080028000000000000000000D0
:08002C000000000000000000CC
:080030000000000200050000C1
:080034000008000000000000BC
:080038000000000000000000C0
:08003C000000000000000000BC
:080040000000000300060000AF
:080044000009000000000000AB
:08004800000C000000000000A4
:08004C000000000000000000AC
:0800500000000003000600009F
:0800540000090000000000009B
:08005800000C00000000000094
:08005C0000000000000000009C
:0800600000000003000600008F
:0800640000090000000000008B
:08006800000C00000000000084
:08006C0000000000000000008C
:0800700000000003000600007F
:0800740000090000000000007B
:08007800000C00000000000074
:08007C0000000000000000007C
:08008000000000000000000078
:08008400000000000000000074
:08008800000000000000000070
:08008C0000000000000000006C
:080090000000000C006C0000F0
:08009400001C00000000000048
:08009800000000000000000060
:08009C0000000000000000005C
:0800A0000000005B0076000087
:0800A400007F000000000000D5
:0800A800003F00000000000011
:0800AC0000000000000000004C
:0800B0000000005B0076000077
:0800B400007F000000000000C5
:0800B800003F00000000000001
:0800BC0000000000000000003C
:0800C0000000005E0067000073
:0800C400007C000000000000B8
:0800C800000000000000000030
:0800CC0000000000000000002C
:0800D0000000005E0067000063
:0800D400007C000000000000A8
:0800D800000000000000000020
:0800DC0000000000000000001C
:0800E0000000005E0067000053
:0800E400007C00000000000098
:0800E800000000000000000010
:0800EC0000000000000000000C
:0800F0000000005E0067000043
:0800F400007C00000000000088
:0800F800000000000000000000
:0800FC000000000000000000FC
:080100000000000000000000F7
:080104000000000000000000F3
:00000001FF
